:020000040800F2
:10000000A8070020D5010008B90900086309000805
:10001000B509000889070008C70F000800000000A4
:10002000000000000000000000000000110C0008AB
:1000300031080008000000002D0A0008410D0008EA
:10004000EF010008EF010008EF010008EF010008D0
:10005000EF010008EF010008EF010008EF010008C0
:10006000EF010008EF010008EF010008EF010008B0
:10007000EF010008EF010008EF010008EF010008A0
:10008000EF010008EF010008EF010008EF01000890
:10009000EF010008EF010008EF010008EF01000880
:1000A000EF010008EF010008EF010008EF01000870
:1000B000EF010008EF010008EF010008EF01000860
:1000C000EF010008EF010008EF010008EF01000850
:1000D000EF010008A50D0008EF010008EF0100087E
:1000E000EF010008EF010008EF010008EF01000830
:1000F000EF010008EF010008EF010008EF01000820
:10010000EF010008EF010008EF010008EF0100080F
:10011000EF010008EF010008EF010008EF010008FF
:10012000EF010008EF010008EF010008EF010008EF
:1001300000F002F800F03FF80AA090E8000C8244BA
:100140008344AAF10107DA4501D100F034F8AFF297
:10015000090EBAE80F0013F0010F18BFFB1A43F0A5
:1001600001031847041B0000241B0000103A24BFA1
:1001700078C878C1FAD8520724BF30C830C144BF0C
:1001800004680C607047000000230024002500264E
:10019000103A28BF78C1FBD8520728BF30C148BFEA
:1001A0000B607047782900F07780002070471FB5FA
:1001B0001FBD10B510BD00F027F91146FFF7F7FF7E
:1001C00001F012F800F045F903B4FFF7F2FF03BCA9
:1001D00000F0FBFE0948804709480047FEE7FEE7BC
:1001E000FEE7FEE7FEE7FEE7FEE7FEE7FEE7FEE7E7
:1001F00004480549054A064B70470000450D0008B4
:1002000031010008A8010020A8070020A803002051
:10021000A8030020704700000FB4044910B503AADA
:10022000029800F0C3F810BC5DF814FB2400002015
:100230002DE9F0410E460446002020622046E16888
:10024000884730B3252805D0D4E901219047206A9A
:10025000401CF2E7E168204600278847050018D0D7
:10026000A5F14100192802D820354FF40067324625
:10027000294620462760FFF795FF40B1012804D0AA
:10028000F61D26F007060836D8E7361DD6E72846BD
:10029000DAE7206ABDE8F08170B504460D462146D4
:1002A0001068AFF300802188090502D50F4A7A440F
:1002B00002E00E4A7A440E32002104F1240305E0E4
:1002C00000F00F060009965D5E54491C0028F7D126
:1002D00020780023000704D5702D02D009B1022335
:1002E00011322046BDE8704000F006B88E190000BB
:1002F00070477047704770472DE9F0470D469946A3
:100300009246044600F124080168880604D5E06995
:1003100021F01001216000E00120A84201DD471B0F
:1003200000E00027A1697A1902EB0900081AA06110
:100330002078C00602D42046AFF30080002608E0F3
:10034000D4E901211AF806009047206A401C761C67
:1003500020624E45F4DB2078C0060AD52046AFF374
:10036000008006E0D4E9012130209047206A401C3B
:100370002062381EA7F10107F4DC07E0D4E901216F
:1003800018F805009047206A401C2062281EA5F13D
:100390000105F3DC2046AFF300802078000602D58B
:1003A0000220BDE8F0870120FBE70000074B70B595
:1003B0000D467B4400F011F80446284600F020F872
:1003C00010B14FF0FF3070BD204670BD170E000019
:1003D00001694A1C02610878704700B58FB0CDE909
:1003E00001310021059105497944CDE903101146F9
:1003F0006846FFF71DFF0FB000BD0000E5FFFFFFDF
:10040000007B00F080007047754600F029F8AE468A
:1004100005006946534620F00700854618B020B510
:10042000FFF7E6FEBDE820404FF000064FF0000762
:100430004FF000084FF0000B21F00701AC46ACE88C
:10044000C009ACE8C009ACE8C009ACE8C0098D46F9
:1004500070470446AFF300802046FFF7B5FE00006A
:10046000004870474801002070B500254FF408503F
:1004700000F062F9002000F05FF9044604F0020485
:100480002546284670BD10B5062000F0E9FD10BDD8
:10049000002001E0411C88B20328FBDB704710B547
:1004A00000F032F810BD000070B504460025FFF7DB
:1004B000EAFF002622E02021124800F050FA04F062
:1004C000800020B180210F4800F049FA03E080212C
:1004D0000C4800F042FA6006040E6806050EFFF7AD
:1004E000D7FF2021074800F038FA4021054800F0E6
:1004F0002BFA0543FFF7CCFF701CC6B2082EDADBDF
:10050000284670BD0008014008B50121042000F014
:100510008FFA03208DF8020010208DF803002020B0
:10052000ADF8000069461B4800F083F98020ADF863
:1005300000006946174800F07CF91020ADF8000073
:100540006946144800F075F90820ADF800006946C6
:10055000104800F06EF948208DF803004020ADF8F7
:10056000000069460B4800F064F90220ADF8000075
:100570006946084800F05DF91021064800F0EFF9DF
:100580002021044800F0E9F90821024800F0E7F9C9
:1005900008BD00000008014070B520264024002559
:1005A000FFF77DFF142000F035FD00BF112000F0A3
:1005B000C3F8002000F0C0F8054629462EA0FFF73A
:1005C0002BFE4FF60470854202D132A0FFF724FEC5
:1005D000052000F01FFD4FF604708542E6D140F281
:1005E000556000F0A9F8002000F0A6F805464FF489
:1005F000005000F0A1F8002000F09EF805464FF4EE
:10060000045000F099F8002000F096F8054644F0F8
:100610000B00302100F058F844F00C003E2100F0AF
:1006200053F844F00D00082100F04EF844F00E009D
:10063000202100F049F844F00F000F2100F044F8A9
:100640004FF42C5000F078F8002000F075F80546C3
:100650004FF4305000F070F8002000F06DF80546BF
:10066000332000F069F8002000F066F8054601200C
:100670001449086070BD0000726563656976652085
:1006800064617461206973203A2025582E2E2E0A49
:10069000000000004144533133314130322069734E
:1006A000207265616479210A2020436F6E66696754
:1006B0007572696E67205265676973746572732E0F
:1006C0002E2E0A001400002070B504460D460026A8
:1006D00004F02000202807D1204600F02DF800204B
:1006E00000F02AF8064619E010210F4800F035F90D
:1006F0000A2000F0B5FC204600F018F8E8B200F03F
:1007000015F8002000F012F8002000F00FF80A2081
:1007100000F0A6FC1021044800F021F90A2000F0A6
:100720009FFC304670BD00000008014010B5044633
:100730002046FFF7B9FE10BD70B504460025102114
:10074000104800F00AF90A2000F08AFC2012FFF796
:10075000EDFF05464FF6FF7000EA0525E0B2FFF712
:10076000E5FF05430020FFF7E1FF0020FFF7DEFF74
:100770001021044800F0F3F80A2000F071FC28462C
:1007800070BD00000008014000BFFEE72DE9FF5FDB
:10079000824616461F46DDF838B00AF4000018B34A
:1007A0006FF07F4020EA0A0A584600F0C7FF8046F3
:1007B00042460B463046394600F068FECDE902015C
:1007C000504600F0BBFF80464FF04042174B00F010
:1007D0005DFE81F00041CDE90001DDE9022300F07A
:1007E000C1FF04460D461CE0584600F0A7FF8046B6
:1007F00042460B463046394600F048FECDE902013C
:10080000504600F09BFF80464FF04042074B00F0FF
:100810003DFECDE90001DDE9022300F0A3FF04461F
:100820000D462046294604B0BDE8F09FFFFF5F411A
:1008300070472DE9F04102460025002600200023E4
:100840000024002791F803C00CF00F0591F803C0B5
:100850000CF0100CBCF1000F03D091F802C04CEA70
:10086000050591F800C0BCF1000F31D014680020DC
:100870002BE04FF0010C0CFA00F3B1F800C00CEAC9
:1008800003069E4220D183004FF00F0C0CFA03F7B1
:10089000BC4305FA03FC4CEA040491F803C0BCF124
:1008A000280F06D14FF0010C0CFA00FCC2F814C05E
:1008B0000AE091F803C0BCF1480F05D14FF0010CDC
:1008C0000CFA00FCC2F810C0401C0828D1D31460F8
:1008D000B1F800C0BCF1FF0F34DD546800202EE0F9
:1008E00000F1080C4FF0010808FA0CF3B1F800C051
:1008F0000CEA03069E4221D183004FF00F0C0CFA44
:1009000003F7BC4305FA03FC4CEA040491F803C066
:10091000BCF1280F05D100F1080C08FA0CF8C2F858
:10092000148091F803C0BCF1480F07D100F1080C06
:100930004FF0010808FA0CF8C2F81080401C082893
:10094000CED35460BDE8F0810246002093680B408E
:100950000BB1012000E00020704741617047016148
:10096000704700BFFEE7000008B50121482000F0F5
:100970005FF82020ADF8000010208DF80300032060
:100980008DF8020069460948FFF753FF2021074808
:10099000FFF7E5FF2020ADF8000069460448FFF7A7
:1009A00048FF04210248FFF7DAFF08BD000C0140B0
:1009B0000018014000BFFEE77047000070B500213D
:1009C00000230F22C47804B3154C246804F4E064B7
:1009D000C4F5E064210AC1F10403CA40447804FA72
:1009E00003F184781440214309010E4C0678A15587
:1009F000047804F01F050124AC4005786D11AD00AA
:100A000005F1E025C5F8004109E0047804F01F0570
:100A10000124AC40044D0678761145F8264070BD9F
:100A20000CED00E000E400E080E100E07047000031
:100A300029B1064A92690243044B9A6104E0034AD1
:100A400092698243014B9A61704700000010024096
:100A500030B500210022002400232D4D6D6805F0E3
:100A60000C0121B1042905D0082923D105E0294D25
:100A7000056022E0274D05601FE0254D6D6805F4F7
:100A80007012234D6D6805F48034022505EB924207
:100A90001CB9214D554305600BE01D4D6D6805F4F3
:100AA00000351DB11C4D5543056002E0194D5543FD
:100AB000056002E0174D056000BF00BF144D6D6872
:100AC00005F0F0010909154D6B5C0568DD404560D6
:100AD0000F4D6D6805F4E061090A104D6B5C4568C7
:100AE000DD4085600A4D6D6805F46051C90A0B4D03
:100AF0006B5C4568DD40C560054D6D6805F440419F
:100B0000890B074D6B5CC568B5FBF3F5056130BD1E
:100B10000010024000127A0000093D002A00002067
:100B20003A00002010B5002410210A48FFF715FFF5
:100B300000BF07E00849085DFFF7F8FD07490855C1
:100B4000601CC4B2182CF5DB10210248FFF707FF28
:100B500010BD000000080140500000206800002087
:100B60001FB5002400BFFFF77FFC0028FBD1FFF773
:100B7000D9FF254800798DF80E00234840798DF87B
:100B80000D00214880798DF80C001F48C0798DF840
:100B90000F001D48007A8DF80A001B48407A8DF836
:100BA00009001948807A8DF808001748C07A8DF836
:100BB0000B001548007B8DF806001348407B8DF82C
:100BC00005001148807B8DF804000F48C07B8DF82C
:100BD00007000D48007C8DF802000B48407C8DF822
:100BE00001000948807C8DF800000748C07C8DF822
:100BF00003000649039808600298486001988860DD
:100C00000098C8601FBD0000680000204000002060
:100C10007047000000BF0549098801F04001002924
:100C2000F9D00249091D08807047000000380140D2
:100C300010B500F001F810BD0CB500200190009037
:100C40003348006840F480303149086000BF3048C4
:100C5000006800F4003000900198401C019000985A
:100C600018B90198B0F5A06FF1D12948006800F4D7
:100C7000003010B10120009001E0002000900098A9
:100C8000012843D12348006840F010002149086042
:100C90000846006820F0030008600846006840F03D
:100CA000020008601A4840681949486008464068D0
:100CB00048600846406840F48060486008464068E4
:100CC00020F47C1048600846406840F4E810486012
:100CD0000846006840F08070086000BF0C4800685B
:100CE00000F000700028F9D00948406820F00300A7
:100CF000074948600846406840F00200486000BF6D
:100D00000348406800F00C000828F9D10CBD000031
:100D10000010024000200240042808D14FF0E021DA
:100D2000096941F004014FF0E022116107E04FF042
:100D3000E021096921F004014FF0E02211617047C0
:100D40007047000010B51348006840F001001149D9
:100D5000086008464068104908400E494860084647
:100D600000680E4908400B4908600846006820F4F6
:100D7000802008600846406820F4FE0048604FF478
:100D80001F008860FFF754FF4FF0006004490860BF
:100D900010BD0000001002400000FFF8FFFFF6FE4B
:100DA00008ED00E010B540F225511D4800F04AF86A
:100DB00010B31B4800F002F9C4B21A48008800F4CE
:100DC0000040C8B91748008800F4804060B10A2C80
:100DD00003D000201349088020E01248008840F426
:100DE00000401049088019E00D2C06D10D480088FC
:100DF00040F480400B49088010E00A480088C0F3A6
:100E00000D0009490C5407480088401C054908801A
:100E100008460088C72801DD0020088010BD0000BA
:100E200000380140280000208000002021B1828984
:100E300042F40052828104E082894DF6FF731A4029
:100E40008281704770B502460024002300250020EF
:100E500040F66A16B14200D100BFC1F3421501F05D
:100E60001F03012606FA03F3012D02D196893340B0
:100E700006E0022D02D1168A334001E0968A334003
:100E80000C12012606FA04F41688344013B10CB192
:100E9000012000E0002070BDF0B5034600240026CC
:100EA0000025002040F66A17B94200D100BF18465D
:100EB000C1F3421401F01F06012707FA06F5012CC1
:100EC00001D10C3004E0022C01D1103000E01430CC
:100ED0001AB107682F43076002E00768AF43076055
:100EE000F0BD00002DE9F04786B005460E4600240F
:100EF000A24600BFA1460027B08900B100BF2F461F
:100F00002C8A4CF6FF700440F08804432C82AC8994
:100F10004EF6F3100440B0883189084371890843C4
:100F20000443AC81AC8A4FF6FF400440B0890443CF
:100F3000AC8201A8FFF78CFD1F48874202D1DDF883
:100F400010A001E0DDF80CA0A88900F4004040B139
:100F50000AEBCA0000EB0A1031684900B0FBF1F857
:100F600007E00AEBCA0000EB0A1031688900B0FB09
:100F7000F1F86420B8FBF0F004012009642101FBC2
:100F80001089A88900F4004040B1322000EBC9006C
:100F9000B0FBF1F000F00700044308E0322000EB62
:100FA00009106421B0FBF1F000F00F0004432C8124
:100FB00006B0BDE8F087000000380140014688888F
:100FC000C0F30800704700BFFEE700BF7047000095
:100FD00010B56FF00400FFF79FFE0A4800680A4949
:100FE000B0FBF1F0094908700846007800EB4001B9
:100FF000C1EBC0104FF6FF7101EAC0000449088040
:1010000010BD00000000002000127A002000002027
:10101000220000200146114A12884A434FF0E02383
:101020005A6100229A611A46126942F001021A615D
:1010300000BF4FF0E022106900F001021AB100F485
:101040008032002AF5D04FF0E022126922F001022E
:101050004FF0E0231A6100229A61704722000020BD
:101060000146114A12784A434FF0E0235A610022A8
:101070009A611A46126942F001021A6100BF4FF0EC
:10108000E022106900F001021AB100F48032002A57
:10109000F5D04FF0E022126922F001024FF0E02378
:1010A0001A6100229A617047200000208EB040A093
:1010B00000680C903F4BD3E90012D3E90203CDE95D
:1010C0000A03CDE908123B4B10330FCBCDE90623C1
:1010D000CDE904010024A246FFF75EFA6420FFF781
:1010E00099FF63E0FFF73CFD00BF3348008800F044
:1010F00040000028F9D09DF830002F49091D0880D4
:1011000000BF2D48008800F040000028F9D09DF86D
:1011100031002949091D088000242DE008A951F853
:10112000240000F007FD05460E46012023490090EB
:1011300051F82400224A234BFFF728FB07462A4692
:10114000334600F0FBF8CDE9020100F0C5F8814616
:101150001D49C1F800904FF0000A08E01A4911F843
:101160000A00FFF757FD0AF1010000F0FF0ABAF18B
:10117000040FF3DB601CC4B2042CCFDB00BF0E48AD
:10118000008800F040000028F9D09DF832000A499C
:10119000091D088000BF0848008800F040000028B2
:1011A000F9D09DF833000449091D08809AE7000032
:1011B00003FCFC03201C0008003801404000002014
:1011C000E17A14AE47E113401800002000BF054A41
:1011D000128802F04002002AF9D0C2B2014B1B1D56
:1011E0001A80704700380140FFF7F2FE4FF4E130FB
:1011F00000F022F8FFF7B8FB16E0FFF757FF0B48A7
:10120000006808B9012000E00020084908604FF498
:101210007A70FFF7FFFE0648D0F8940108B9012064
:1012200000E0002003490860E7E7000094812142C4
:10123000000023429401234210B586B004460121E8
:1012400044F20400FFF7F4FB4FF40070ADF8140013
:1012500003208DF8160018208DF8170005A91C48EA
:10126000FFF7E7FA4FF48060ADF8140004208DF822
:10127000170005A91648FFF7DCFA25208DF80000B5
:1012800003208DF801008DF8020001208DF8030085
:101290006846FFF793FB01940020ADF80800ADF815
:1012A0000A00ADF80C00ADF810000C20ADF80E00EF
:1012B00001A90848FFF716FE012240F22551054812
:1012C000FFF7EAFD01210348FFF7B0FD06B010BDAE
:1012D000000801400038014021F00042A2F16052B4
:1012E000B2F5801F01F0004328BFD2F17F6C0BD90B
:1012F0005FEA001C43EAC20242EB507018BF70471D
:1013000028BF20F001007047B2F5801FBCBF18460F
:1013100070474FEA410C1CF5001F02D2084600F04E
:101320007ABC70B500F0C8FA00000089FFF7F6BF7C
:101330004FF00040A0F580007047000010B591EA22
:10134000030F48BF83F0004300F11283841A71EB4E
:10135000030C05D2121943EB0C03001B61EB0C01CB
:10136000DFF824E14FEA1154A4EB135C1EEA430FAB
:1013700018BF9EEA445F73D023EA0E03DCF1200E0F
:1013800021EA045143F4801332D322FA0CFE10EB0D
:101390000E0023FA0CFE41EB0E01CCF1200E03FAF5
:1013A0000EFE10EB0E0051F10001B1F5801FCCF1E3
:1013B000200E32D201EB045112FA0EF2BDE81040B9
:1013C00058BF7047401C38BF5FEA420218BF7047E1
:1013D000002814BF20F0010041F100014FEA410351
:1013E00013F5001F38BF7047A1F1C04100F0B2BA39
:1013F000012A43EB0302ACF1200CDCF11F0E32BFDB
:101400004FF0000E23FA0CF310EB030041EB0451F4
:10141000B4EB115FD0D0A1EB045101F58011490864
:101420005FEA300001EB04510ED350F1000038BFE9
:1014300012FA0EFE08D1BDE81040C9E7401C38BFC3
:101440005FEA4202CAD1C3E7BDE810404FEA410358
:1014500013F5001F38BF7047A1F1C04100F07ABA00
:101460009EEA445F08D011EA5E0FBDE8104004BF59
:1014700001F0004100207047BDE8104070B500F059
:101480001BFA00BF64FBBE3E0000E0FF2DE9C04137
:1014900030B4DFF8A0C23CEA111418BF3CEA1314C0
:1014A00000F0EC8081EA03051CEA111444EAD574CB
:1014B00018BF1CEA131500F0C780A4EB05044FF019
:1014C000004545EAC12145EAC32341EA505143EAB8
:1014D000525304F17F74994204F500344FEAC0205E
:1014E0004FEAC22208BF904200F09C804FEA136589
:1014F0000FF24016765D4FEA134506FB05F7C7F17C
:10150000807706FB07F74FEAD737A7FB03687642D9
:10151000C8F58038A7FB06CE38BFA8F1010807FB45
:1015200008E64FF0000EA6FB028CE6FB03CEDCF1D2
:10153000000CCEF1004E38BFAEF1010EA6FB0C58E8
:101540004FF000074FF00005E6FB0E87A1FB08C631
:10155000A0FB07CE16EB0E0645F10005E1FB076583
:1015600015F1E04E7EBFA4F580345FEA46066D417A
:1015700016F1800745F100054FEA17274FEA066686
:1015800047EA0567A6F1DE46B6F1805F4FEA15250A
:101590001FD9384624F0010C05EBC471BCF1FE6F75
:1015A00001EB0C1102D8F0BCBDE8008124425CBF05
:1015B00001F5801E9EEAC47F02D4F0BCBDE8008124
:1015C000244238D4F0BCA1F1C041BDE8004100F094
:1015D000C1B94FEAD22242EA43524FEAD323A7FBD2
:1015E00002864FEAD02040EA415007FB03661EEA1C
:1015F0000E0F4FEAD12105FB026658BFA6EB00563D
:10160000B6EB00564FEA520E4EEAC37E18EB0E0EB2
:1016100056EB530EBDD518EB02085E417F1C55F109
:101620000005B6E74FF480154FF000074FF00006B5
:101630004FF00008ADE7F0BC4FF0000001F1C041F1
:1016400001F00041BDE8008111EA0C1F0CEA1315FE
:1016500000D00CE013EA0C1F00F025804FF00000D2
:10166000F0BC81EA030101F00041BDE80081F0BC5B
:10167000BDE8004181EA030100F06CB9F0BCBDE8AF
:10168000004170B500F018F9097EFC3E00F007B883
:1016900081EA03014FF0000001F00041704781EA48
:1016A000030100F057B9F0BCBDE800414FF0000065
:1016B00021497047FFFDFBF9F7F5F4F2F0EEEDEB91
:1016C000E9E8E6E4E3E1E0DEDDDBDAD8D7D5D4D340
:1016D000D1D0CFCDCCCBCAC8C7C6C5C4C2C1C0BF8C
:1016E000BEBDBCBBBAB9B8B7B6B5B4B3B2B1B0AF92
:1016F000AEADACABAAA9A8A8A7A6A5A4A3A3A2A176
:10170000A09F9F9E9D9C9C9B9A9999989797969530
:1017100095949393929191908F8F8E8E8D8C8C8BCC
:101720008B8A898988888787868585848483838254
:10173000828181800000FF070000F87FB0FA80F30B
:1017400010FA03F10AD0C3F11D0303F580634FEAD9
:1017500041504FEA035202EBD12170474FF0000095
:1017600070470000DFF848C170B51CEA111E1EBFAB
:101770001CEA13159EEA0C0F95EA0C0F00F06F801F
:1017800081EA030423EA4C134EEAD47E21EA4C1189
:1017900041F4801143F48013AE44A1FB024CA0FB42
:1017A0000365AEF17F7E361955EB0C05A1FB034CAA
:1017B0004CF10003A0FB021C16EB0C06654153F133
:1017C0000003094218BF46F0010613F4007F0BD155
:1017D0004FEA03314FEA0530340341EA155140EA3C
:1017E00016506FF003020AE04FEAC3214FEAC5200A
:1017F000F40241EA555140EA56506FF0020202EB02
:101800002E4201EB025585EACE710AD05FEA440C04
:1018100018BF24F0004450F1000041F1000120EA1B
:10182000D47040F2FE7C624500D270BDA84214BF65
:101830004FF080444FF04044002E08BF0024BEF11A
:10184000806FA8BFA1F1C041BDE8704080F28280E6
:101850004FF0000001F1C04101F0004170479EEAE5
:101860000C0F0CEA131518BF95EA0C0F06D04FF0B9
:10187000000081EA030E0EF0004170BD00F01CF87C
:101880008900013E00F007B800F009B84FEA430CA8
:101890005FEA5C5C08D081EA030100F05BB84FEAC4
:1018A000410C5FEA5C5CF6D14FF0000001497047E3
:1018B0000000FF070000F87F0EF1020E2EF0030E6D
:1018C0005EF8046B364205D4012A43EB030515F597
:1018D000001F12D8012841EB010C1CF5001F0CD889
:1018E0000ED14FEAD17C15F5001F0CEB4C0C0CF11E
:1018F000020C08BF4CEBD37C04E04FF0080C01E075
:101900004FEAD37C0CEB4C0526FA05F606F00706E9
:10191000B6F1040C06D20EEB860CBDE870404CF01C
:10192000010C6047DFE80CF0090B02024FF00041A8
:101930004FF00000A1F5002170BD194610460128A6
:1019400051EB010418BFD4F5001484BF002001F04E
:10195000004170BD0808A0F500114FEA3101704741
:1019600010B591EA030F48BF83F000433FF5EEAC9A
:10197000841A71EB030C07D212198CF0004C43EB64
:101980000C03001B61EB0C01DFF8A4E14FEA1154DA
:10199000A4EB135C1EEA430F18BF9EEA445F00F0FD
:1019A000B08023EA6E03524221EA0451C3EB6E0376
:1019B00038BF5B1EDCF1200E25D322FA0CFE10EBA3
:1019C0000E0043FA0CFE41EB0E01CCF1200E03FA9F
:1019D0000EFE10EB0E0051F10001CCF1200E29D4C7
:1019E00012FA0EF201EB0451BDE8104058BF7047E7
:1019F000401C1CBFB2F1004F704700280CBF491CAF
:101A000020F00100704712EB020E43EB030218BFF7
:101A10004FF0010E4EEA4202ACF1200CDCF11E0E3A
:101A200054D943FA0CFE10EB0E0051F1FF31CCF10A
:101A30001E0ED5D50EF1010E12FA0EFE404141EBFD
:101A4000010101EB445C5FEA5C5C10D910EBDE70D5
:101A500001EB045138BFBEF1004FBDE8104018BF84
:101A6000704700280CBF491C20F00100704730D29D
:101A70004FEAD42C11F5001124F400641BD0B1FA04
:101A800081F20B3AA41AA41ED2F12003914030FA3D
:101A900003F31943904001EBCC71002C01EB04518E
:101AA000BDE81040A8BF704701F1C0414FF00000F1
:101AB00001F000417047B0FA80F310FA03F100D151
:101AC00010BDE41A173C4805C90AE4E701EB0451CC
:101AD00010BD491001EB0451BDE810404FEA300041
:101AE00002E04FF0000170474A0008BF0042F8D002
:101AF000B2F5001F28BF704701F000414FF0000011
:101B000070479EEA445F07D011EA5E0FBDE81040BF
:101B100004BF002100207047BDE8104070B5FFF7FA
:101B2000CBFE00BF40DFF63E83F000411046704719
:101B30000000E0FF43004FEAD30C4FEA3C0C434067
:101B40001FBF40070CF1605113F0FE4F70471CF0AF
:101B5000006F03D100200CF0004170470CF00043EF
:101B600043EA507010B540EACC0000F00EF800BF18
:101B7000000000924FEA0001FFF7ECBE4FF0004179
:101B80004FF00000A1F5002170470EF1020E2EF07B
:101B9000030E5EF8044B244204D44FEA4102B2F132
:101BA0007F4F11D84FEA4003B3F17F4F0CD80ED1CD
:101BB0004FEAD07CB2F17F4F0CEB4C0C0CF1020CD5
:101BC00008BF4CEBD17C04E04FF0080C01E04FEA79
:101BD000D17C0CEB4C0324FA03F404F00704B4F1B9
:101BE000040C06D20EEB840CBDE810404CF0010C46
:101BF0006047DFE80CF0070802024FF00040A0F554
:101C0000800010BD0846420018BFD2F1807288BF24
:101C100000F0004010BDFF2141EAD050C0057047E0
:101C2000ACC5273852491DBA6F1283BAA69B44BA75
:101C30002000000000000000000000000000000084
:101C400030313233343536373839414243444546F2
:101C500040305800303132333435363738396162EC
:101C60006364656640307800881C0008000000202E
:101C7000400000006C010008C81C00084000002063
:101C8000680700008801000800A24A040000000064
:101C9000000000000102030406070809000000001C
:101CA0000000000000000000000000000000000034
:101CB0000000000000000102030401020304060703
:081CC0000809020406080000F7
:0400000508000131BD
:00000001FF
